{
  "address": "0x2D64b7177E2dAfD8FbD080A9D0644cDf554bC660",
  "abi": [
    {
      "inputs": [
        {
          "internalType": "address",
          "name": "_owner",
          "type": "address"
        }
      ],
      "stateMutability": "nonpayable",
      "type": "constructor"
    },
    {
      "inputs": [
        {
          "internalType": "address",
          "name": "owner",
          "type": "address"
        }
      ],
      "name": "OwnableInvalidOwner",
      "type": "error"
    },
    {
      "inputs": [
        {
          "internalType": "address",
          "name": "account",
          "type": "address"
        }
      ],
      "name": "OwnableUnauthorizedAccount",
      "type": "error"
    },
    {
      "anonymous": false,
      "inputs": [
        {
          "indexed": true,
          "internalType": "address",
          "name": "previousOwner",
          "type": "address"
        },
        {
          "indexed": true,
          "internalType": "address",
          "name": "newOwner",
          "type": "address"
        }
      ],
      "name": "OwnershipTransferred",
      "type": "event"
    },
    {
      "inputs": [],
      "name": "blockNumber",
      "outputs": [
        {
          "internalType": "uint256",
          "name": "",
          "type": "uint256"
        }
      ],
      "stateMutability": "view",
      "type": "function"
    },
    {
      "inputs": [],
      "name": "getFirstName",
      "outputs": [
        {
          "internalType": "string",
          "name": "",
          "type": "string"
        }
      ],
      "stateMutability": "view",
      "type": "function"
    },
    {
      "inputs": [],
      "name": "getLastName",
      "outputs": [
        {
          "internalType": "string",
          "name": "",
          "type": "string"
        }
      ],
      "stateMutability": "view",
      "type": "function"
    },
    {
      "inputs": [],
      "name": "getSeed",
      "outputs": [
        {
          "internalType": "uint256",
          "name": "",
          "type": "uint256"
        }
      ],
      "stateMutability": "view",
      "type": "function"
    },
    {
      "inputs": [],
      "name": "name",
      "outputs": [
        {
          "internalType": "string",
          "name": "",
          "type": "string"
        }
      ],
      "stateMutability": "view",
      "type": "function"
    },
    {
      "inputs": [],
      "name": "owner",
      "outputs": [
        {
          "internalType": "address",
          "name": "",
          "type": "address"
        }
      ],
      "stateMutability": "view",
      "type": "function"
    },
    {
      "inputs": [],
      "name": "renounceOwnership",
      "outputs": [],
      "stateMutability": "nonpayable",
      "type": "function"
    },
    {
      "inputs": [
        {
          "internalType": "address",
          "name": "newOwner",
          "type": "address"
        }
      ],
      "name": "transferOwnership",
      "outputs": [],
      "stateMutability": "nonpayable",
      "type": "function"
    }
  ],
  "transactionHash": "0x32adb775e125308e1ce019662e6aef1456c34b359c7ca6f9608f938f7b56be5a",
  "args": [
    "0x34aA3F359A9D614239015126635CE7732c18fDF3"
  ],
  "numDeployments": 3,
  "solcInputHash": "bb64ff1e22ec6c5e9277222f942e3002",
  "bytecode": "0x60086106a08181526753796c766172726160c01b6106c081905260809182526106e08381526743687976616e6e6160c01b6107005260a05261072083815267437279766172726160c01b61074081905260c0919091526007610760818152664b79766172726160c81b6107805260e0526107a0818152664368797661726160c81b6107c052610100526107e0858152675a6879766172726160c01b610800526101205261082085815267436879766572726160c01b610840526101405261086085815267546879766172726160c01b610880819052610160919091526108a0828152665679766172726160c81b6108c0819052610180919091526108e087815267436c79766172726160c01b610900526101a052610920838152665469766172726160c81b610940526101c05261096087815267586879766172726160c01b610980526101e0526109a0838152664d79766172726160c81b6109c0526102005260096109e08181526843687974686572726160b81b610a0081905261022091909152610a20898152674368796c6172726160c01b610a405261024052610a60858152664c79766172726160c81b610a805261026052610aa08281526843687976617272696160b81b610ac05261028052610ae0898152674b6879766172726160c01b610b00526102a052610b2089815267506879766172726160c01b610b40526102c052610b60858152665379766172726160c81b610b80526102e052610ba0898152610bc085905261030052610be089815267436879766972616560c01b610c005261032052610c20858152665879766172726160c81b610c4081905261034091909152610c608381526843727974686172726160b81b610c8081905261036091909152610ca0848152685a687974686572726160b81b610cc05261038052610ce08b815267467279766172726160c01b610d00526103a052610d208b815267436879766172726160c01b610d408190526103c091909152610d60888152665479766172726160c81b610d80526103e052610da0888152664279766172726160c81b610dc05261040052610de0888152664879766172726160c81b610e005261042052610e208c8152610e409990995261044098909852610e608b8152610e809690965261046095909552610ea08681526610da1e5d9a595b60ca1b610ec05261048052610ee08a8152674c6879766172726160c01b610f00526104a052610f208a8152675a7974686572726160c01b610f40526104c052610f608a8152674b6c79766172726160c01b610f80526104e052610fa0838152610fc09590955261050094909452610fe085815261100094909452610520939093526110208881526110409690965261054095909552611060858152611080839052610560526110a08381526110c091909152610580526110e086815267466879766172726160c01b611100526105a052611120868152611140939093526105c092909252611160838152611180929092526105e0919091526111a0818152664b796c6172726160c81b6111c052610600526111e084815267537974686572726160c01b61120052610620526112209182526846727974686572726160b81b611240526106409190915261126092835267427974686572726160c01b61128052610660929092526112e06040526112a0918252664976796172726160c81b6112c05261068091909152620004f190600190603162000c2b565b506040805161068081018252600961064082018181526845636c69707469636160b81b61066084015282528251808401845260088082526722b1b634b83a37b960c11b602083810191909152808501929092528451808601865283815268456c6c69707469636160b81b8184015284860152845180860186528381526822b1b634b839b2b7b760b91b818401526060850152845180860186528381526845636c697074686f7360b81b81840152608085015284518086018652600a808252694563686f6c797469636160b01b8285015260a086019190915285518087018752848152681158db1a5c1cdbda5960ba1b8185015260c0860152855180870187528481526841657468657269636160b81b8185015260e0860152855180870187528181526948656c696f6e7469636160b01b81850152610100860152855180870187528481526822b1b63cba343937b760b91b81850152610120860152855180870187528281526745786f746869636160c01b81850152610140860152855180870187528481526853706563747279636160b81b8185015261016086015285518087018752908152694372796f6c697468696160b01b8184015261018085015284518086018652818152674f7363796c6c697360c01b818401526101a08501528451808601865281815267457279746869636160c01b818401526101c085015284518086018652600780825266536f6c7978696160c81b828501526101e08601919091528551808701875282815267457468657279636160c01b8185015261020086015285518087018752818152664178696f6e697360c81b818501526102208601528551808701875281815266417572616c697360c81b8185015261024086015285518087018752848152684c756d696e7468696160b81b8185015261026086015285518087018752828152675079726974686f7360c01b818501526102808601528551808701875281815266496f6e6973636160c81b818501526102a08601528551808701875282815267417374657279636160c01b818501526102c086015285518087018752818152665a65706879726160c81b818501526102e086015285518087018752848152684f627363796c6c6f7360b81b818501526103008601528551808701875281815266098eadad2dccaf60cb1b818501526103208601528551808701875281815266417869616c6f7360c81b81850152610340860152855180870187528281526722b93cb63634b7b760c11b81850152610360860152855180870187528281526708ac6d0d2dedcf2f60c31b818501526103808601528551808701875284815268536f6c616e7468697360b81b818501526103a08601528551808701875284815268456c6c657374686f7360b81b818501526103c0860152855180870187528281526722b934b234b1b7b760c11b818501526103e08601528551808701875281815266092f0ded8f2e8d60cb1b8185015261040086015285518087018752848152685175696e746869636160b81b81850152610420860152855180870187528181526627b9b1bab937b760c91b8185015261044086015285518087018752818152664578706879726160c81b8185015261046086015285518087018752828152674572797468616e6160c01b81850152610480860152855180870187528281526720b2ba3432b937b760c11b818501526104a086015285518087018752828152674f6c6d7974686f7360c01b818501526104c08601528551808701875282815267082f0d2dedcd2e8d60c31b818501526104e08601528551808701875282815267082eae4c2d8d2e8d60c31b81850152610500860152855180870187528281526748656c696f6e697360c01b818501526105208601528551808701875281815266536f6c6172697360c81b81850152610540860152855180870187528281526722b6b83cb932b7b760c11b81850152610560860152855180870187528281526749676e6974686f7360c01b818501526105808601528551808701875293845268566f6c796e7468697360b81b848401526105a0850193909352845180860186528381526608ac6d0dedcf2f60cb1b818401526105c085015284518086018652928352664173747279636160c81b838301526105e084019290925283518085018552828152670a0f2e4c2d8f2e8d60c31b8183015261060084015283518085019094529083526709ccaf0c2d8d2e8d60c31b9083015261062081019190915262000b6790600290603262000c88565b5034801562000b7557600080fd5b50604051620014673803806200146783398101604081905262000b989162000d4d565b806001600160a01b03811662000bc857604051631e4fbdf760e01b81526000600482015260240160405180910390fd5b62000bd38162000bdb565b505062000ef0565b600080546001600160a01b038381166001600160a01b0319831681178455604051919092169283917f8be0079c531659141344cd1fd0a4f28419497f9722a3daafe3b4186f6b6457e09190a35050565b82805482825590600052602060002090810192821562000c76579160200282015b8281111562000c76578251829062000c65908262000e24565b509160200191906001019062000c4c565b5062000c8492915062000cd3565b5090565b82805482825590600052602060002090810192821562000c76579160200282015b8281111562000c76578251829062000cc2908262000e24565b509160200191906001019062000ca9565b8082111562000c8457600062000cea828262000cf4565b5060010162000cd3565b50805462000d029062000d95565b6000825580601f1062000d13575050565b601f01602090049060005260206000209081019062000d33919062000d36565b50565b5b8082111562000c84576000815560010162000d37565b60006020828403121562000d6057600080fd5b81516001600160a01b038116811462000d7857600080fd5b9392505050565b634e487b7160e01b600052604160045260246000fd5b600181811c9082168062000daa57607f821691505b60208210810362000dcb57634e487b7160e01b600052602260045260246000fd5b50919050565b601f82111562000e1f57600081815260208120601f850160051c8101602086101562000dfa5750805b601f850160051c820191505b8181101562000e1b5782815560010162000e06565b5050505b505050565b81516001600160401b0381111562000e405762000e4062000d7f565b62000e588162000e51845462000d95565b8462000dd1565b602080601f83116001811462000e90576000841562000e775750858301515b600019600386901b1c1916600185901b17855562000e1b565b600085815260208120601f198616915b8281101562000ec15788860151825594840194600190910190840162000ea0565b508582101562000ee05787850151600019600388901b60f8161c191681555b5050505050600190811b01905550565b6105678062000f006000396000f3fe608060405234801561001057600080fd5b50600436106100885760003560e01c8063715018a61161005b578063715018a6146100cf5780638da5cb5b146100d9578063932997f1146100f4578063f2fde38b146100fc57600080fd5b806306fdde031461008d57806339e7357c146100ab57806357e871e7146100c15780636b109282146100c7575b600080fd5b61009561010f565b6040516100a291906103f9565b60405180910390f35b6100b3610146565b6040519081526020016100a2565b436100b3565b610095610199565b6100d761029a565b005b6000546040516001600160a01b0390911681526020016100a2565b6100956102ae565b6100d761010a36600461042c565b610315565b60606101196102ae565b610121610199565b60405160200161013292919061045c565b604051602081830303815290604052905090565b6000610153600143610498565b60408051914060208301526bffffffffffffffffffffffff193060601b16908201526054016040516020818303038152906040528051906020012060001c60ff16905090565b60028054606091600091906101ae9043610498565b406101b7610146565b6040805160208101939093528201526060016040516020818303038152906040528051906020012060001c6101ec91906104bf565b905060028181548110610201576102016104e1565b906000526020600020018054610216906104f7565b80601f0160208091040260200160405190810160405280929190818152602001828054610242906104f7565b801561028f5780601f106102645761010080835404028352916020019161028f565b820191906000526020600020905b81548152906001019060200180831161027257829003601f168201915b505050505091505090565b6102a2610358565b6102ac6000610385565b565b6001546060906000906102c2600343610498565b406102cb610146565b6040805160208101939093528201526060016040516020818303038152906040528051906020012060001c61030091906104bf565b905060018181548110610201576102016104e1565b61031d610358565b6001600160a01b03811661034c57604051631e4fbdf760e01b8152600060048201526024015b60405180910390fd5b61035581610385565b50565b6000546001600160a01b031633146102ac5760405163118cdaa760e01b8152336004820152602401610343565b600080546001600160a01b038381166001600160a01b0319831681178455604051919092169283917f8be0079c531659141344cd1fd0a4f28419497f9722a3daafe3b4186f6b6457e09190a35050565b60005b838110156103f05781810151838201526020016103d8565b50506000910152565b60208152600082518060208401526104188160408501602087016103d5565b601f01601f19169190910160400192915050565b60006020828403121561043e57600080fd5b81356001600160a01b038116811461045557600080fd5b9392505050565b6000835161046e8184602088016103d5565b600160fd1b908301908152835161048c8160018401602088016103d5565b01600101949350505050565b818103818111156104b957634e487b7160e01b600052601160045260246000fd5b92915050565b6000826104dc57634e487b7160e01b600052601260045260246000fd5b500690565b634e487b7160e01b600052603260045260246000fd5b600181811c9082168061050b57607f821691505b60208210810361052b57634e487b7160e01b600052602260045260246000fd5b5091905056fea2646970667358221220064e39d4d4b2632f8f4d4edddb1369cf7e651aeaa234f247db0b2abe7ddf49ef64736f6c63430008140033",
  "devdoc": {
    "author": "BuidlGuidl",
    "errors": {
      "OwnableInvalidOwner(address)": [
        {
          "details": "The owner is not a valid owner account. (eg. `address(0)`)"
        }
      ],
      "OwnableUnauthorizedAccount(address)": [
        {
          "details": "The caller account is not authorized to perform an operation."
        }
      ]
    },
    "kind": "dev",
    "methods": {
      "owner()": {
        "details": "Returns the address of the current owner."
      },
      "renounceOwnership()": {
        "details": "Leaves the contract without owner. It will not be possible to call `onlyOwner` functions. Can only be called by the current owner. NOTE: Renouncing ownership will leave the contract without an owner, thereby disabling any functionality that is only available to the owner."
      },
      "transferOwnership(address)": {
        "details": "Transfers ownership of the contract to a new account (`newOwner`). Can only be called by the current owner."
      }
    },
    "version": 1
  },
  "userdoc": {
    "kind": "user",
    "methods": {},
    "notice": "A smart contract that allows changing a state variable of the contract and tracking the changes It also allows the owner to withdraw the Ether in the contract",
    "version": 1
  },
  "storageLayout": {
    "storage": [
      {
        "astId": 8,
        "contract": "contracts/YourContract.sol:YourContract",
        "label": "_owner",
        "offset": 0,
        "slot": "0",
        "type": "t_address"
      },
      {
        "astId": 274,
        "contract": "contracts/YourContract.sol:YourContract",
        "label": "firstNames",
        "offset": 0,
        "slot": "1",
        "type": "t_array(t_string_storage)dyn_storage"
      },
      {
        "astId": 328,
        "contract": "contracts/YourContract.sol:YourContract",
        "label": "lastNames",
        "offset": 0,
        "slot": "2",
        "type": "t_array(t_string_storage)dyn_storage"
      }
    ],
    "types": {
      "t_address": {
        "encoding": "inplace",
        "label": "address",
        "numberOfBytes": "20"
      },
      "t_array(t_string_storage)dyn_storage": {
        "base": "t_string_storage",
        "encoding": "dynamic_array",
        "label": "string[]",
        "numberOfBytes": "32"
      },
      "t_string_storage": {
        "encoding": "bytes",
        "label": "string",
        "numberOfBytes": "32"
      }
    }
  }
}