{
  "address": "0x82eae774a3345a13AD038764c2425bE03fC4dA58",
  "abi": [
    {
      "anonymous": false,
      "inputs": [
        {
          "indexed": true,
          "internalType": "address",
          "name": "buyer",
          "type": "address"
        },
        {
          "indexed": false,
          "internalType": "uint256",
          "name": "amount",
          "type": "uint256"
        }
      ],
      "name": "Buy",
      "type": "event"
    },
    {
      "inputs": [],
      "name": "blockNumber",
      "outputs": [
        {
          "internalType": "uint256",
          "name": "",
          "type": "uint256"
        }
      ],
      "stateMutability": "view",
      "type": "function"
    },
    {
      "inputs": [],
      "name": "buy",
      "outputs": [],
      "stateMutability": "payable",
      "type": "function"
    },
    {
      "inputs": [],
      "name": "name",
      "outputs": [
        {
          "internalType": "string",
          "name": "",
          "type": "string"
        }
      ],
      "stateMutability": "view",
      "type": "function"
    },
    {
      "inputs": [],
      "name": "owner",
      "outputs": [
        {
          "internalType": "address",
          "name": "",
          "type": "address"
        }
      ],
      "stateMutability": "view",
      "type": "function"
    },
    {
      "inputs": [],
      "name": "previous",
      "outputs": [
        {
          "internalType": "address",
          "name": "",
          "type": "address"
        }
      ],
      "stateMutability": "view",
      "type": "function"
    },
    {
      "inputs": [],
      "name": "previousPrevious",
      "outputs": [
        {
          "internalType": "address",
          "name": "",
          "type": "address"
        }
      ],
      "stateMutability": "view",
      "type": "function"
    },
    {
      "inputs": [],
      "name": "previousPreviousPrevious",
      "outputs": [
        {
          "internalType": "address",
          "name": "",
          "type": "address"
        }
      ],
      "stateMutability": "view",
      "type": "function"
    },
    {
      "inputs": [],
      "name": "price",
      "outputs": [
        {
          "internalType": "uint256",
          "name": "",
          "type": "uint256"
        }
      ],
      "stateMutability": "view",
      "type": "function"
    },
    {
      "inputs": [],
      "name": "weth",
      "outputs": [
        {
          "internalType": "address",
          "name": "",
          "type": "address"
        }
      ],
      "stateMutability": "view",
      "type": "function"
    }
  ],
  "transactionHash": "0x61ce76ecf824038ae64b5dc0409c729ce1717cce8273ffb8669a3792cd66e419",
  "args": [],
  "numDeployments": 4,
  "solcInputHash": "4d410b7e79ae91dddf1e775d9cc8a909",
  "bytecode": "0x60c0604052601b60809081527f4f7074696d6973746963204f6e636861696e204578706c6f726572000000000060a05260009061003c9082610143565b5066038d7ea4c68000600155600280547334aa3f359a9d614239015126635ce7732c18fdf36001600160a01b03199182168117909255600380548216831790556004805482168317905560058054909116909117905534801561009e57600080fd5b50610202565b634e487b7160e01b600052604160045260246000fd5b600181811c908216806100ce57607f821691505b6020821081036100ee57634e487b7160e01b600052602260045260246000fd5b50919050565b601f82111561013e57600081815260208120601f850160051c8101602086101561011b5750805b601f850160051c820191505b8181101561013a57828155600101610127565b5050505b505050565b81516001600160401b0381111561015c5761015c6100a4565b6101708161016a84546100ba565b846100f4565b602080601f8311600181146101a5576000841561018d5750858301515b600019600386901b1c1916600185901b17855561013a565b600085815260208120601f198616915b828110156101d4578886015182559484019460019091019084016101b5565b50858210156101f25787850151600019600388901b60f8161c191681555b5050505050600190811b01905550565b610622806102116000396000f3fe6080604052600436106100865760003560e01c80638da5cb5b116100595780638da5cb5b1461012657806392bee71014610146578063a035b1fe14610166578063a6f2ae3a1461017c578063d87c86371461018657600080fd5b806306fdde031461008b5780633fc8cef3146100b657806357e871e7146100e95780637c2b2e7114610106575b600080fd5b34801561009757600080fd5b506100a06101a6565b6040516100ad91906104ee565b60405180910390f35b3480156100c257600080fd5b506100d16006602160991b0181565b6040516001600160a01b0390911681526020016100ad565b3480156100f557600080fd5b50435b6040519081526020016100ad565b34801561011257600080fd5b506003546100d1906001600160a01b031681565b34801561013257600080fd5b506002546100d1906001600160a01b031681565b34801561015257600080fd5b506004546100d1906001600160a01b031681565b34801561017257600080fd5b506100f860015481565b610184610234565b005b34801561019257600080fd5b506005546100d1906001600160a01b031681565b600080546101b39061053c565b80601f01602080910402602001604051908101604052809291908181526020018280546101df9061053c565b801561022c5780601f106102015761010080835404028352916020019161022c565b820191906000526020600020905b81548152906001019060200180831161020f57829003601f168201915b505050505081565b60015434101561027f5760405162461bcd60e51b8152602060048201526012602482015271496e73756666696369656e742066756e647360701b604482015260640160405180910390fd5b60015434906103e89061029490610409610576565b61029e91906105a1565b600155600060646102b083600a610576565b6102ba91906105a1565b905060006102c96002836105a1565b905060006102d86002836105a1565b6003549091506102f1906001600160a01b0316846103b8565b600454610307906001600160a01b0316836103b8565b60055461031d906001600160a01b0316826103b8565b600254610333906001600160a01b0316476103b8565b60048054600580546001600160a01b038084166001600160a01b03199283161790925560038054808416948316949094179094556002805492831693821693909317909355339216821790556040518581527fe3d4187f6ca4248660cc0ac8b8056515bac4a8132be2eca31d6d0cc170722a7e9060200160405180910390a250505050565b6000826001600160a01b03168260405160006040518083038185875af1925050503d8060008114610405576040519150601f19603f3d011682016040523d82523d6000602084013e61040a565b606091505b50509050806104e9576006602160991b016001600160a01b031663d0e30db0836040518263ffffffff1660e01b81526004016000604051808303818588803b15801561045557600080fd5b505af1158015610469573d6000803e3d6000fd5b505060405163a9059cbb60e01b81526001600160a01b0387166004820152602481018690526006602160991b01935063a9059cbb925060440190506020604051808303816000875af11580156104c3573d6000803e3d6000fd5b505050506040513d601f19601f820116820180604052508101906104e791906105c3565b505b505050565b600060208083528351808285015260005b8181101561051b578581018301518582016040015282016104ff565b506000604082860101526040601f19601f8301168501019250505092915050565b600181811c9082168061055057607f821691505b60208210810361057057634e487b7160e01b600052602260045260246000fd5b50919050565b808202811582820484141761059b57634e487b7160e01b600052601160045260246000fd5b92915050565b6000826105be57634e487b7160e01b600052601260045260246000fd5b500490565b6000602082840312156105d557600080fd5b815180151581146105e557600080fd5b939250505056fea2646970667358221220d282dcc3fbd5a3631f7ce204822e4b6cdcaf2c9e99948af6f6b3473dc00e802364736f6c63430008140033",
  "devdoc": {
    "author": "BuidlGuidl",
    "kind": "dev",
    "methods": {},
    "version": 1
  },
  "userdoc": {
    "kind": "user",
    "methods": {},
    "notice": "A smart contract that allows changing a state variable of the contract and tracking the changes It also allows the owner to withdraw the Ether in the contract",
    "version": 1
  },
  "storageLayout": {
    "storage": [
      {
        "astId": 204,
        "contract": "contracts/YourContract.sol:YourContract",
        "label": "name",
        "offset": 0,
        "slot": "0",
        "type": "t_string_storage"
      },
      {
        "astId": 207,
        "contract": "contracts/YourContract.sol:YourContract",
        "label": "price",
        "offset": 0,
        "slot": "1",
        "type": "t_uint256"
      },
      {
        "astId": 210,
        "contract": "contracts/YourContract.sol:YourContract",
        "label": "owner",
        "offset": 0,
        "slot": "2",
        "type": "t_address"
      },
      {
        "astId": 213,
        "contract": "contracts/YourContract.sol:YourContract",
        "label": "previous",
        "offset": 0,
        "slot": "3",
        "type": "t_address"
      },
      {
        "astId": 216,
        "contract": "contracts/YourContract.sol:YourContract",
        "label": "previousPrevious",
        "offset": 0,
        "slot": "4",
        "type": "t_address"
      },
      {
        "astId": 219,
        "contract": "contracts/YourContract.sol:YourContract",
        "label": "previousPreviousPrevious",
        "offset": 0,
        "slot": "5",
        "type": "t_address"
      }
    ],
    "types": {
      "t_address": {
        "encoding": "inplace",
        "label": "address",
        "numberOfBytes": "20"
      },
      "t_string_storage": {
        "encoding": "bytes",
        "label": "string",
        "numberOfBytes": "32"
      },
      "t_uint256": {
        "encoding": "inplace",
        "label": "uint256",
        "numberOfBytes": "32"
      }
    }
  }
}